{
  "_format": "hh-sol-artifact-1",
  "contractName": "ShenYuFullDApp",
  "sourceName": "contracts/ShenYuFullDApp_Complete.sol",
  "abi": [
    {
      "inputs": [],
      "stateMutability": "nonpayable",
      "type": "constructor"
    },
    {
      "anonymous": false,
      "inputs": [
        {
          "indexed": false,
          "internalType": "address",
          "name": "user",
          "type": "address"
        },
        {
          "indexed": false,
          "internalType": "uint256",
          "name": "rid",
          "type": "uint256"
        },
        {
          "indexed": false,
          "internalType": "enum ShenYuFullDApp.Side",
          "name": "side",
          "type": "uint8"
        },
        {
          "indexed": false,
          "internalType": "uint256",
          "name": "amt",
          "type": "uint256"
        }
      ],
      "name": "BetDone",
      "type": "event"
    },
    {
      "anonymous": false,
      "inputs": [
        {
          "indexed": false,
          "internalType": "uint256",
          "name": "amt",
          "type": "uint256"
        }
      ],
      "name": "Burned",
      "type": "event"
    },
    {
      "anonymous": false,
      "inputs": [
        {
          "indexed": false,
          "internalType": "address",
          "name": "user",
          "type": "address"
        },
        {
          "indexed": false,
          "internalType": "uint256",
          "name": "rid",
          "type": "uint256"
        },
        {
          "indexed": false,
          "internalType": "uint256",
          "name": "amt",
          "type": "uint256"
        }
      ],
      "name": "Claimed",
      "type": "event"
    },
    {
      "anonymous": false,
      "inputs": [
        {
          "indexed": false,
          "internalType": "address",
          "name": "creator",
          "type": "address"
        },
        {
          "indexed": false,
          "internalType": "uint256",
          "name": "eventId",
          "type": "uint256"
        },
        {
          "indexed": false,
          "internalType": "uint256",
          "name": "reward",
          "type": "uint256"
        }
      ],
      "name": "CreatorReward",
      "type": "event"
    },
    {
      "anonymous": false,
      "inputs": [
        {
          "indexed": false,
          "internalType": "address",
          "name": "node",
          "type": "address"
        },
        {
          "indexed": false,
          "internalType": "uint256",
          "name": "amount",
          "type": "uint256"
        },
        {
          "indexed": false,
          "internalType": "string",
          "name": "dividendType",
          "type": "string"
        }
      ],
      "name": "NodeDividendDistributed",
      "type": "event"
    },
    {
      "anonymous": false,
      "inputs": [
        {
          "indexed": false,
          "internalType": "address",
          "name": "user",
          "type": "address"
        },
        {
          "indexed": false,
          "internalType": "enum ShenYuFullDApp.NodeLevel",
          "name": "level",
          "type": "uint8"
        }
      ],
      "name": "NodeRegistered",
      "type": "event"
    },
    {
      "anonymous": false,
      "inputs": [
        {
          "indexed": true,
          "internalType": "address",
          "name": "previousOwner",
          "type": "address"
        },
        {
          "indexed": true,
          "internalType": "address",
          "name": "newOwner",
          "type": "address"
        }
      ],
      "name": "OwnershipTransferred",
      "type": "event"
    },
    {
      "anonymous": false,
      "inputs": [
        {
          "indexed": false,
          "internalType": "uint256",
          "name": "day",
          "type": "uint256"
        },
        {
          "indexed": false,
          "internalType": "address[]",
          "name": "topUsers",
          "type": "address[]"
        },
        {
          "indexed": false,
          "internalType": "uint256",
          "name": "totalAmount",
          "type": "uint256"
        }
      ],
      "name": "RankingRewardDistributed",
      "type": "event"
    },
    {
      "anonymous": false,
      "inputs": [
        {
          "indexed": false,
          "internalType": "uint256",
          "name": "rid",
          "type": "uint256"
        },
        {
          "indexed": false,
          "internalType": "string",
          "name": "title",
          "type": "string"
        },
        {
          "indexed": false,
          "internalType": "address",
          "name": "creator",
          "type": "address"
        }
      ],
      "name": "RoundCreated",
      "type": "event"
    },
    {
      "anonymous": false,
      "inputs": [
        {
          "indexed": false,
          "internalType": "uint256",
          "name": "rid",
          "type": "uint256"
        },
        {
          "indexed": false,
          "internalType": "enum ShenYuFullDApp.Side",
          "name": "winSide",
          "type": "uint8"
        },
        {
          "indexed": false,
          "internalType": "uint256",
          "name": "winnerPool",
          "type": "uint256"
        }
      ],
      "name": "RoundSettled",
      "type": "event"
    },
    {
      "anonymous": false,
      "inputs": [
        {
          "indexed": false,
          "internalType": "address",
          "name": "user",
          "type": "address"
        }
      ],
      "name": "UserActivated",
      "type": "event"
    },
    {
      "anonymous": false,
      "inputs": [
        {
          "indexed": false,
          "internalType": "address",
          "name": "user",
          "type": "address"
        },
        {
          "indexed": false,
          "internalType": "address",
          "name": "inviter",
          "type": "address"
        }
      ],
      "name": "UserRegistered",
      "type": "event"
    },
    {
      "inputs": [],
      "name": "ACTIVATION_DIRECT",
      "outputs": [
        {
          "internalType": "uint256",
          "name": "",
          "type": "uint256"
        }
      ],
      "stateMutability": "view",
      "type": "function"
    },
    {
      "inputs": [],
      "name": "ACTIVATION_FLOW",
      "outputs": [
        {
          "internalType": "uint256",
          "name": "",
          "type": "uint256"
        }
      ],
      "stateMutability": "view",
      "type": "function"
    },
    {
      "inputs": [],
      "name": "ACTIVE_POINTS_MULTIPLIER",
      "outputs": [
        {
          "internalType": "uint256",
          "name": "",
          "type": "uint256"
        }
      ],
      "stateMutability": "view",
      "type": "function"
    },
    {
      "inputs": [],
      "name": "BASE",
      "outputs": [
        {
          "internalType": "uint256",
          "name": "",
          "type": "uint256"
        }
      ],
      "stateMutability": "view",
      "type": "function"
    },
    {
      "inputs": [],
      "name": "COMMUNITY_SHARE",
      "outputs": [
        {
          "internalType": "uint256",
          "name": "",
          "type": "uint256"
        }
      ],
      "stateMutability": "view",
      "type": "function"
    },
    {
      "inputs": [],
      "name": "CREATION_DEPOSIT",
      "outputs": [
        {
          "internalType": "uint256",
          "name": "",
          "type": "uint256"
        }
      ],
      "stateMutability": "view",
      "type": "function"
    },
    {
      "inputs": [],
      "name": "GENESIS_NODE_MAX",
      "outputs": [
        {
          "internalType": "uint256",
          "name": "",
          "type": "uint256"
        }
      ],
      "stateMutability": "view",
      "type": "function"
    },
    {
      "inputs": [],
      "name": "GENESIS_NODE_MIN",
      "outputs": [
        {
          "internalType": "uint256",
          "name": "",
          "type": "uint256"
        }
      ],
      "stateMutability": "view",
      "type": "function"
    },
    {
      "inputs": [
        {
          "internalType": "uint256",
          "name": "",
          "type": "uint256"
        }
      ],
      "name": "LEVEL_RATE",
      "outputs": [
        {
          "internalType": "uint256",
          "name": "",
          "type": "uint256"
        }
      ],
      "stateMutability": "view",
      "type": "function"
    },
    {
      "inputs": [],
      "name": "NODE_CAP_MULTIPLIER",
      "outputs": [
        {
          "internalType": "uint256",
          "name": "",
          "type": "uint256"
        }
      ],
      "stateMutability": "view",
      "type": "function"
    },
    {
      "inputs": [],
      "name": "NODE_SHARE",
      "outputs": [
        {
          "internalType": "uint256",
          "name": "",
          "type": "uint256"
        }
      ],
      "stateMutability": "view",
      "type": "function"
    },
    {
      "inputs": [],
      "name": "NORMAL_CAP_MULTIPLIER",
      "outputs": [
        {
          "internalType": "uint256",
          "name": "",
          "type": "uint256"
        }
      ],
      "stateMutability": "view",
      "type": "function"
    },
    {
      "inputs": [],
      "name": "NORMAL_NODE_MAX",
      "outputs": [
        {
          "internalType": "uint256",
          "name": "",
          "type": "uint256"
        }
      ],
      "stateMutability": "view",
      "type": "function"
    },
    {
      "inputs": [],
      "name": "NORMAL_NODE_MIN",
      "outputs": [
        {
          "internalType": "uint256",
          "name": "",
          "type": "uint256"
        }
      ],
      "stateMutability": "view",
      "type": "function"
    },
    {
      "inputs": [],
      "name": "OPERATE_SHARE",
      "outputs": [
        {
          "internalType": "uint256",
          "name": "",
          "type": "uint256"
        }
      ],
      "stateMutability": "view",
      "type": "function"
    },
    {
      "inputs": [],
      "name": "OPERATE_WALLET",
      "outputs": [
        {
          "internalType": "address",
          "name": "",
          "type": "address"
        }
      ],
      "stateMutability": "view",
      "type": "function"
    },
    {
      "inputs": [],
      "name": "SUPER_NODE_MAX",
      "outputs": [
        {
          "internalType": "uint256",
          "name": "",
          "type": "uint256"
        }
      ],
      "stateMutability": "view",
      "type": "function"
    },
    {
      "inputs": [],
      "name": "SUPER_NODE_MIN",
      "outputs": [
        {
          "internalType": "uint256",
          "name": "",
          "type": "uint256"
        }
      ],
      "stateMutability": "view",
      "type": "function"
    },
    {
      "inputs": [],
      "name": "TREASURY_WALLET",
      "outputs": [
        {
          "internalType": "address",
          "name": "",
          "type": "address"
        }
      ],
      "stateMutability": "view",
      "type": "function"
    },
    {
      "inputs": [],
      "name": "USDT",
      "outputs": [
        {
          "internalType": "contract IERC20",
          "name": "",
          "type": "address"
        }
      ],
      "stateMutability": "view",
      "type": "function"
    },
    {
      "inputs": [],
      "name": "WINNER_SHARE",
      "outputs": [
        {
          "internalType": "uint256",
          "name": "",
          "type": "uint256"
        }
      ],
      "stateMutability": "view",
      "type": "function"
    },
    {
      "inputs": [
        {
          "internalType": "uint256",
          "name": "_rid",
          "type": "uint256"
        },
        {
          "internalType": "enum ShenYuFullDApp.Side",
          "name": "_side",
          "type": "uint8"
        },
        {
          "internalType": "uint256",
          "name": "_amt",
          "type": "uint256"
        }
      ],
      "name": "bet",
      "outputs": [],
      "stateMutability": "nonpayable",
      "type": "function"
    },
    {
      "inputs": [
        {
          "internalType": "uint256",
          "name": "",
          "type": "uint256"
        },
        {
          "internalType": "address",
          "name": "",
          "type": "address"
        }
      ],
      "name": "bets",
      "outputs": [
        {
          "internalType": "uint256",
          "name": "amount",
          "type": "uint256"
        },
        {
          "internalType": "enum ShenYuFullDApp.Side",
          "name": "side",
          "type": "uint8"
        },
        {
          "internalType": "bool",
          "name": "claimed",
          "type": "bool"
        }
      ],
      "stateMutability": "view",
      "type": "function"
    },
    {
      "inputs": [
        {
          "internalType": "uint256",
          "name": "_rid",
          "type": "uint256"
        }
      ],
      "name": "claim",
      "outputs": [],
      "stateMutability": "nonpayable",
      "type": "function"
    },
    {
      "inputs": [],
      "name": "claimCommunityBenefit",
      "outputs": [],
      "stateMutability": "nonpayable",
      "type": "function"
    },
    {
      "inputs": [],
      "name": "communityPool",
      "outputs": [
        {
          "internalType": "uint256",
          "name": "",
          "type": "uint256"
        }
      ],
      "stateMutability": "view",
      "type": "function"
    },
    {
      "inputs": [
        {
          "internalType": "string",
          "name": "_title",
          "type": "string"
        },
        {
          "internalType": "uint256",
          "name": "_minBet",
          "type": "uint256"
        }
      ],
      "name": "createRound",
      "outputs": [],
      "stateMutability": "nonpayable",
      "type": "function"
    },
    {
      "inputs": [
        {
          "internalType": "uint256",
          "name": "",
          "type": "uint256"
        },
        {
          "internalType": "address",
          "name": "",
          "type": "address"
        }
      ],
      "name": "dailyRankingPoints",
      "outputs": [
        {
          "internalType": "uint256",
          "name": "",
          "type": "uint256"
        }
      ],
      "stateMutability": "view",
      "type": "function"
    },
    {
      "inputs": [
        {
          "internalType": "uint256",
          "name": "",
          "type": "uint256"
        },
        {
          "internalType": "uint256",
          "name": "",
          "type": "uint256"
        }
      ],
      "name": "dailyTopUsers",
      "outputs": [
        {
          "internalType": "address",
          "name": "",
          "type": "address"
        }
      ],
      "stateMutability": "view",
      "type": "function"
    },
    {
      "inputs": [],
      "name": "distributeNodeDividends",
      "outputs": [],
      "stateMutability": "nonpayable",
      "type": "function"
    },
    {
      "inputs": [],
      "name": "emergencyPause",
      "outputs": [],
      "stateMutability": "nonpayable",
      "type": "function"
    },
    {
      "inputs": [
        {
          "internalType": "uint256",
          "name": "_rid",
          "type": "uint256"
        },
        {
          "internalType": "uint256",
          "name": "_extraTime",
          "type": "uint256"
        }
      ],
      "name": "extendRoundTime",
      "outputs": [],
      "stateMutability": "nonpayable",
      "type": "function"
    },
    {
      "inputs": [],
      "name": "genesisNodeCount",
      "outputs": [
        {
          "internalType": "uint256",
          "name": "",
          "type": "uint256"
        }
      ],
      "stateMutability": "view",
      "type": "function"
    },
    {
      "inputs": [
        {
          "internalType": "uint256",
          "name": "",
          "type": "uint256"
        }
      ],
      "name": "genesisNodes",
      "outputs": [
        {
          "internalType": "address",
          "name": "",
          "type": "address"
        }
      ],
      "stateMutability": "view",
      "type": "function"
    },
    {
      "inputs": [],
      "name": "getNodeCounts",
      "outputs": [
        {
          "internalType": "uint256",
          "name": "genesis",
          "type": "uint256"
        },
        {
          "internalType": "uint256",
          "name": "superCount",
          "type": "uint256"
        },
        {
          "internalType": "uint256",
          "name": "normalCount",
          "type": "uint256"
        }
      ],
      "stateMutability": "view",
      "type": "function"
    },
    {
      "inputs": [
        {
          "internalType": "address",
          "name": "user",
          "type": "address"
        }
      ],
      "name": "getUserInfo",
      "outputs": [
        {
          "internalType": "address",
          "name": "inviter",
          "type": "address"
        },
        {
          "internalType": "uint256",
          "name": "activePoints",
          "type": "uint256"
        },
        {
          "internalType": "uint256",
          "name": "totalDeposit",
          "type": "uint256"
        },
        {
          "internalType": "uint256",
          "name": "teamEarned",
          "type": "uint256"
        },
        {
          "internalType": "enum ShenYuFullDApp.NodeLevel",
          "name": "nodeLevel",
          "type": "uint8"
        },
        {
          "internalType": "bool",
          "name": "activated",
          "type": "bool"
        },
        {
          "internalType": "uint256",
          "name": "effectiveDirectReferrals",
          "type": "uint256"
        }
      ],
      "stateMutability": "view",
      "type": "function"
    },
    {
      "inputs": [
        {
          "internalType": "address",
          "name": "",
          "type": "address"
        }
      ],
      "name": "isGenesisNode",
      "outputs": [
        {
          "internalType": "bool",
          "name": "",
          "type": "bool"
        }
      ],
      "stateMutability": "view",
      "type": "function"
    },
    {
      "inputs": [
        {
          "internalType": "address",
          "name": "",
          "type": "address"
        }
      ],
      "name": "isNormalNode",
      "outputs": [
        {
          "internalType": "bool",
          "name": "",
          "type": "bool"
        }
      ],
      "stateMutability": "view",
      "type": "function"
    },
    {
      "inputs": [
        {
          "internalType": "address",
          "name": "",
          "type": "address"
        }
      ],
      "name": "isSuperNode",
      "outputs": [
        {
          "internalType": "bool",
          "name": "",
          "type": "bool"
        }
      ],
      "stateMutability": "view",
      "type": "function"
    },
    {
      "inputs": [],
      "name": "lastRankingDay",
      "outputs": [
        {
          "internalType": "uint256",
          "name": "",
          "type": "uint256"
        }
      ],
      "stateMutability": "view",
      "type": "function"
    },
    {
      "inputs": [],
      "name": "nodePool",
      "outputs": [
        {
          "internalType": "uint256",
          "name": "",
          "type": "uint256"
        }
      ],
      "stateMutability": "view",
      "type": "function"
    },
    {
      "inputs": [],
      "name": "normalNodeCount",
      "outputs": [
        {
          "internalType": "uint256",
          "name": "",
          "type": "uint256"
        }
      ],
      "stateMutability": "view",
      "type": "function"
    },
    {
      "inputs": [
        {
          "internalType": "uint256",
          "name": "",
          "type": "uint256"
        }
      ],
      "name": "normalNodes",
      "outputs": [
        {
          "internalType": "address",
          "name": "",
          "type": "address"
        }
      ],
      "stateMutability": "view",
      "type": "function"
    },
    {
      "inputs": [],
      "name": "owner",
      "outputs": [
        {
          "internalType": "address",
          "name": "",
          "type": "address"
        }
      ],
      "stateMutability": "view",
      "type": "function"
    },
    {
      "inputs": [],
      "name": "rankingPool",
      "outputs": [
        {
          "internalType": "uint256",
          "name": "",
          "type": "uint256"
        }
      ],
      "stateMutability": "view",
      "type": "function"
    },
    {
      "inputs": [
        {
          "internalType": "address",
          "name": "_inviter",
          "type": "address"
        }
      ],
      "name": "register",
      "outputs": [],
      "stateMutability": "nonpayable",
      "type": "function"
    },
    {
      "inputs": [],
      "name": "registerNode",
      "outputs": [],
      "stateMutability": "nonpayable",
      "type": "function"
    },
    {
      "inputs": [],
      "name": "renounceOwnership",
      "outputs": [],
      "stateMutability": "nonpayable",
      "type": "function"
    },
    {
      "inputs": [],
      "name": "roundId",
      "outputs": [
        {
          "internalType": "uint256",
          "name": "",
          "type": "uint256"
        }
      ],
      "stateMutability": "view",
      "type": "function"
    },
    {
      "inputs": [
        {
          "internalType": "uint256",
          "name": "",
          "type": "uint256"
        }
      ],
      "name": "rounds",
      "outputs": [
        {
          "internalType": "uint256",
          "name": "id",
          "type": "uint256"
        },
        {
          "internalType": "string",
          "name": "title",
          "type": "string"
        },
        {
          "internalType": "address",
          "name": "creator",
          "type": "address"
        },
        {
          "internalType": "uint256",
          "name": "endTime",
          "type": "uint256"
        },
        {
          "internalType": "enum ShenYuFullDApp.Status",
          "name": "status",
          "type": "uint8"
        },
        {
          "internalType": "uint256",
          "name": "totalYes",
          "type": "uint256"
        },
        {
          "internalType": "uint256",
          "name": "totalNo",
          "type": "uint256"
        },
        {
          "internalType": "uint256",
          "name": "totalPool",
          "type": "uint256"
        },
        {
          "internalType": "uint256",
          "name": "creatorRewardRate",
          "type": "uint256"
        }
      ],
      "stateMutability": "view",
      "type": "function"
    },
    {
      "inputs": [
        {
          "internalType": "uint256",
          "name": "_rid",
          "type": "uint256"
        },
        {
          "internalType": "enum ShenYuFullDApp.Side",
          "name": "_winSide",
          "type": "uint8"
        }
      ],
      "name": "settle",
      "outputs": [],
      "stateMutability": "nonpayable",
      "type": "function"
    },
    {
      "inputs": [],
      "name": "superNodeCount",
      "outputs": [
        {
          "internalType": "uint256",
          "name": "",
          "type": "uint256"
        }
      ],
      "stateMutability": "view",
      "type": "function"
    },
    {
      "inputs": [
        {
          "internalType": "uint256",
          "name": "",
          "type": "uint256"
        }
      ],
      "name": "superNodes",
      "outputs": [
        {
          "internalType": "address",
          "name": "",
          "type": "address"
        }
      ],
      "stateMutability": "view",
      "type": "function"
    },
    {
      "inputs": [],
      "name": "totalDepositInSystem",
      "outputs": [
        {
          "internalType": "uint256",
          "name": "",
          "type": "uint256"
        }
      ],
      "stateMutability": "view",
      "type": "function"
    },
    {
      "inputs": [],
      "name": "totalUserCount",
      "outputs": [
        {
          "internalType": "uint256",
          "name": "",
          "type": "uint256"
        }
      ],
      "stateMutability": "view",
      "type": "function"
    },
    {
      "inputs": [
        {
          "internalType": "address",
          "name": "newOwner",
          "type": "address"
        }
      ],
      "name": "transferOwnership",
      "outputs": [],
      "stateMutability": "nonpayable",
      "type": "function"
    },
    {
      "inputs": [
        {
          "internalType": "address",
          "name": "",
          "type": "address"
        }
      ],
      "name": "users",
      "outputs": [
        {
          "internalType": "address",
          "name": "inviter",
          "type": "address"
        },
        {
          "internalType": "uint256",
          "name": "activePoints",
          "type": "uint256"
        },
        {
          "internalType": "uint256",
          "name": "totalDeposit",
          "type": "uint256"
        },
        {
          "internalType": "uint256",
          "name": "teamEarned",
          "type": "uint256"
        },
        {
          "internalType": "uint256",
          "name": "dailyFlow",
          "type": "uint256"
        },
        {
          "internalType": "uint256",
          "name": "effectiveDirectReferrals",
          "type": "uint256"
        },
        {
          "internalType": "enum ShenYuFullDApp.NodeLevel",
          "name": "nodeLevel",
          "type": "uint8"
        },
        {
          "internalType": "bool",
          "name": "activated",
          "type": "bool"
        }
      ],
      "stateMutability": "view",
      "type": "function"
    }
  ],
  "bytecode": "0x61016060405260326080908152601960a052600c60c052600660e0526003610100526001610120819052610140526200003d906002906007620000c0565b506000601655600060175560006018553480156200005a57600080fd5b50620000663362000070565b600180556200011f565b600080546001600160a01b038381166001600160a01b0319831681178455604051919092169283917f8be0079c531659141344cd1fd0a4f28419497f9722a3daafe3b4186f6b6457e09190a35050565b8260078101928215620000f6579160200282015b82811115620000f6578251829060ff16905591602001919060010190620000d4565b506200010492915062000108565b5090565b5b8082111562000104576000815560010162000109565b6132a9806200012f6000396000f3fe608060405234801561001057600080fd5b50600436106103835760003560e01c80637aa73166116101de578063bf90ff141161010f578063de07bb79116100ad578063f52fb8db1161007c578063f52fb8db146107b5578063f644b3bb146107be578063f94e5ebe1461080b578063ff9753561461081557600080fd5b8063de07bb7914610764578063ec342ad014610787578063f0d82e271461078f578063f2fde38b146107a257600080fd5b8063d7c88bb4116100e9578063d7c88bb414610743578063d8f1f8f41461074b578063dbe3010c14610754578063dd04a41d1461075c57600080fd5b8063bf90ff1414610712578063c54e44eb1461071b578063cf87935c1461073057600080fd5b80639f093e9c1161017c578063a87430ba11610156578063a87430ba1461066d578063b713291b146103bc578063b935ae54146106e3578063bef92f85146106ee57600080fd5b80639f093e9c146106505780639fd9ce8f14610659578063a39a953c1461066257600080fd5b80638c65c81f116101b85780638c65c81f1461060e5780638cd221c9146106365780638da5cb5b1461063f57806397117448146103bc57600080fd5b80637aa73166146105d85780637d0e81bf146105eb57806384dfd640146103c457600080fd5b80633a9aea6d116102b85780635daf314611610256578063715018a611610230578063715018a61461058157806374e57ea214610589578063767fe0b2146105925780637a05a2f1146105c557600080fd5b80635daf3146146104c85780636386c1c7146104e357806369d424661461055657600080fd5b80634bb86af0116102925780634bb86af0146104a357806351858e27146104ac5780635816f038146104b45780635974906c146104bf57600080fd5b80633a9aea6d1461046a57806343b43d991461047d5780634420e4861461049057600080fd5b8063242bb651116103255780632ffb61fb116102ff5780632ffb61fb1461043457806333b467e21461043c578063379607f51461044f578063388ea31e1461046257600080fd5b8063242bb651146104105780632c0fb38e146104195780632f15b40b1461042c57600080fd5b80630b045c67116103615780630b045c67146103c457806314399d9b146103cc57806314d140b0146103ff5780631680b35c1461040857600080fd5b806302748fc51461038857806302773829146103a757806307605425146103bc575b600080fd5b6103946402540be40081565b6040519081526020015b60405180910390f35b6103ba6103b5366004612add565b61081e565b005b610394600581565b610394600f81565b6103e7731a0a3d5fb91120185a795477ed600b9cd394773281565b6040516001600160a01b03909116815260200161039e565b610394600d5481565b6103ba610892565b610394601b5481565b6103e7610427366004612aff565b610b26565b6103ba610b50565b610394600181565b6103e761044a366004612add565b610cb1565b6103ba61045d366004612aff565b610ce9565b6103ba610ef6565b6103e7610478366004612aff565b610f98565b61039461048b366004612aff565b610fa8565b6103ba61049e366004612b34565b610fbf565b610394601d5481565b6103ba611174565b6103946301312d0081565b61039460165481565b6103e7739c156fd416e0368545b999a4cc2cf9444ecf401681565b6105436104f1366004612b34565b6001600160a01b039081166000908152600b6020526040902080546001820154600283015460038401546006850154600f860154600590960154949096169692959194909360ff928316939290911691565b60405161039e9796959493929190612b79565b610394610564366004612bc0565b601960209081526000928352604080842090915290825290205481565b6103ba61117c565b61039460175481565b6105b56105a0366004612b34565b60156020526000908152604090205460ff1681565b604051901515815260200161039e565b6103ba6105d3366004612bec565b61118e565b6103e76105e6366004612aff565b611398565b6105b56105f9366004612b34565b60146020526000908152604090205460ff1681565b61062161061c366004612aff565b6113a8565b60405161039e99989796959493929190612cb4565b61039460095481565b6000546001600160a01b03166103e7565b61039461025881565b610394601c5481565b61039463b2d05e0081565b6106cf61067b366004612b34565b600b6020526000908152604090208054600182015460028301546003840154600485015460058601546006870154600f909701546001600160a01b03909616969495939492939192909160ff918216911688565b60405161039e989796959493929190612d23565b610394633b9aca0081565b6016546017546018546040805193845260208401929092529082015260600161039e565b61039461012c81565b6103e760008051602061323483398151915281565b6103ba61073e366004612d88565b611487565b610394603181565b610394600e5481565b610394604f81565b610394600381565b6105b5610772366004612b34565b60136020526000908152604090205460ff1681565b610394606481565b6103ba61079d366004612dbd565b61165d565b6103ba6107b0366004612b34565b61197b565b61039460185481565b6107fc6107cc366004612bc0565b600c6020908152600092835260408084209091529082529020805460019091015460ff8082169161010090041683565b60405161039e93929190612df0565b6103946298968081565b610394600f5481565b6108266119f1565b6000828152600a6020526040812090600482015460ff16600281111561084e5761084e612b4f565b146108745760405162461bcd60e51b815260040161086b90612e14565b60405180910390fd5b818160030160008282546108889190612e52565b9091555050505050565b336000908152600b6020526040902060028101546402540be40081108015906108bd57506031601654105b156109815760068201805460ff199081166003179091553360008181526013602052604081208054909316600190811790935560108054938401815581527f1b6847dc741a1b0cd08d278845f9d819d87b734759afb55fe2de5cb82a9ae67290920180546001600160a01b0319169091179055601680549161093e83612e6b565b91905055507f1f63e087b186a95e77f84777db8290b8ac9093ba93592a3c2752d8b789e9c676336003604051610975929190612e84565b60405180910390a15050565b63b2d05e008110158015610998575061012c601754105b15610a505760068201805460ff199081166002179091553360008181526014602052604081208054909316600190811790935560118054938401815581527f31ecc21a745e3968a04e9570e4425bc18fa8019c68028196b546d1669c200c6890920180546001600160a01b03191690911790556017805491610a1983612e6b565b91905055507f1f63e087b186a95e77f84777db8290b8ac9093ba93592a3c2752d8b789e9c676336002604051610975929190612e84565b633b9aca008110158015610a675750610258601854105b15610b22576006820180546001919060ff191682800217905550336000818152601560205260408120805460ff1916600190811790915560128054918201815582527fbb8a6a4669ba250d26cd7a459eca9d215f8307e33aebe50379bc5a3617ec34440180546001600160a01b0319169092179091556018805491610aeb83612e6b565b91905055507f1f63e087b186a95e77f84777db8290b8ac9093ba93592a3c2752d8b789e9c676336001604051610975929190612e84565b5050565b60118181548110610b3657600080fd5b6000918252602090912001546001600160a01b0316905081565b610b58611a4b565b336000908152600b602052604090206001808201541015610bae5760405162461bcd60e51b815260206004820152601060248201526f6e6f2061637469766520706f696e747360801b604482015260640161086b565b6000600d5411610bee5760405162461bcd60e51b815260206004820152600b60248201526a6e6f2062656e656669747360a81b604482015260640161086b565b6000601c548260020154600d54610c059190612ea1565b610c0f9190612ece565b905060008111610c585760405162461bcd60e51b81526020600482015260146024820152736e6f2062656e6566697420617661696c61626c6560601b604482015260640161086b565b6001826001016000828254610c6d9190612ee2565b90915550610c8c90506000805160206132348339815191523383611aa4565b80600d6000828254610c9e9190612ee2565b90915550506001805550610caf9050565b565b601a6020528160005260406000208181548110610ccd57600080fd5b6000918252602090912001546001600160a01b03169150829050565b610cf1611a4b565b6000818152600a602052604090206001600482015460ff166002811115610d1a57610d1a612b4f565b14610d5b5760405162461bcd60e51b81526020600482015260116024820152701c9bdd5b99081b9bdd081cd95d1d1b1959607a1b604482015260640161086b565b6000828152600c6020908152604080832033845290915290206001810154610100900460ff1615610dc05760405162461bcd60e51b815260206004820152600f60248201526e185b1c9958591e4818db185a5b5959608a1b604482015260640161086b565b8054610df75760405162461bcd60e51b81526020600482015260066024820152651b9bc818995d60d21b604482015260640161086b565b60008060018084015460ff1690811115610e1357610e13612b4f565b14610e22578260060154610e28565b82600501545b905060008184600501548460000154610e419190612ea1565b610e4b9190612ece565b60018401805461ff0019166101001790559050610e776000805160206132348339815191523383611aa4565b336000908152600b60205260409020600f015460ff1615610e9c57610e9c3382611b07565b610ea533611d17565b60408051338152602081018790529081018290527f987d620f307ff6b94d58743cb7a7509f24071586a77759b77c2d4e29f75a2f9a9060600160405180910390a150505050610ef360018055565b50565b610efe6119f1565b6000600e5411610f3f5760405162461bcd60e51b815260206004820152600c60248201526b1b9bc81b9bd919481c1bdbdb60a21b604482015260640161086b565b60006064600e546046610f529190612ea1565b610f5c9190612ece565b905060006064600e54601e610f719190612ea1565b610f7b9190612ece565b9050610f8682611df7565b610f8f81612087565b50506000600e55565b60128181548110610b3657600080fd5b60028160078110610fb857600080fd5b0154905081565b336000908152600b60205260409020600701546001600160a01b03161561101d5760405162461bcd60e51b8152602060048201526012602482015271185b1c9958591e481c9959da5cdd195c995960721b604482015260640161086b565b336000908152600b6020526040812080546001600160a01b0319166001600160a01b038416178155600f01805460ff1916905581905b60078110156110d5576001600160a01b038216156110d557336000908152600b6020526040902082906007908101908390811061109257611092612ef5565b0180546001600160a01b0319166001600160a01b039283161790559182166000908152600b602052604090205490911690806110cd81612e6b565b915050611053565b506001600160a01b03821615611121576001600160a01b0382166000908152600b602090815260408220600e01805460018101825590835291200180546001600160a01b031916331790555b601d805490600061113183612e6b565b9091555050604080513381526001600160a01b03841660208201527f2138b9314634f9fdd5e49bee3eaf17ca557b6637524d0db759711c3bfcd3d8509101610975565b610caf6119f1565b6111846119f1565b610caf6000612443565b6301312d008110156111d95760405162461bcd60e51b81526020600482015260146024820152731b995959080c8c081554d1150819195c1bdcda5d60621b604482015260640161086b565b6111f760008051602061323483398151915233306301312d00612493565b6000611202336124d1565b60098054919250600061121483612e6b565b9190505550604051806101200160405280600954815260200185858080601f01602080910402602001604051908101604052809392919081815260200183838082843760009201919091525050509082525033602082015260400161127b42610e10612e52565b8152602001600081526000602080830182905260408084018390526060840183905260809093018590526009548252600a8152919020825181559082015160018201906112c89082612fa1565b506040820151600282810180546001600160a01b0319166001600160a01b03909316929092179091556060830151600383015560808301516004830180549192909160ff191690600190849081111561132357611323612b4f565b021790555060a0820151600582015560c0820151600682015560e08201516007820155610100909101516008909101556009546040517f07d2f2d2462093cdaa78cd89244c2dec0c55aace81fb5bb9ddbe1f5507b9b2329161138a91879087903390613061565b60405180910390a150505050565b60108181548110610b3657600080fd5b600a60205260009081526040902080546001820180549192916113ca90612f21565b80601f01602080910402602001604051908101604052809291908181526020018280546113f690612f21565b80156114435780601f1061141857610100808354040283529160200191611443565b820191906000526020600020905b81548152906001019060200180831161142657829003601f168201915b5050505060028301546003840154600485015460058601546006870154600788015460089098015496976001600160a01b039095169693955060ff90921693909289565b61148f611a4b565b6000838152600a6020526040812090600482015460ff1660028111156114b7576114b7612b4f565b146114d45760405162461bcd60e51b815260040161086b90612e14565b806003015442106115155760405162461bcd60e51b815260206004820152600b60248201526a1c9bdd5b9908195b99195960aa1b604482015260640161086b565b61152f600080516020613234833981519152333085612493565b600083600181111561154357611543612b4f565b03611567578181600501600082825461155c9190612e52565b909155506115819050565b8181600601600082825461157b9190612e52565b90915550505b818160070160008282546115959190612e52565b90915550506000848152600c60209081526040808320338452909152812080548492906115c3908490612e52565b90915550506000848152600c60209081526040808320338452909152902060019081018054859260ff1990911690838181111561160257611602612b4f565b02179055506116113383612522565b7f7a9e90c02c7c3f778f567f0c111cf2ed25fcd5237a3f3597916421284d88b1f23385858560405161164694939291906130aa565b60405180910390a15061165860018055565b505050565b6116656119f1565b6000828152600a6020526040812090600482015460ff16600281111561168d5761168d612b4f565b146116aa5760405162461bcd60e51b815260040161086b90612e14565b80600301544210156116f05760405162461bcd60e51b815260206004820152600f60248201526e1c9bdd5b99081b9bdd08195b991959608a1b604482015260640161086b565b60048101805460ff19166001179055600781015460009060649061171690604f90612ea1565b6117209190612ece565b905060006064600f84600701546117379190612ea1565b6117419190612ece565b905060006064600585600701546117589190612ea1565b6117629190612ece565b905060006064600186600701546117799190612ea1565b6117839190612ece565b905082600d60008282546117979190612e52565b9250508190555080600e60008282546117b09190612e52565b909155506117e39050600080516020613234833981519152731a0a3d5fb91120185a795477ed600b9cd394773284611aa4565b60008486600701546117f59190612ee2565b9050600082846118058785612ee2565b61180f9190612ee2565b6118199190612ee2565b905080156118825761184e600080516020613234833981519152739c156fd416e0368545b999a4cc2cf9444ecf401683611aa4565b6040518181527fd83c63197e8e676d80ab0122beba9a9d20f3828839e9a1d6fe81d242e9cd7e6e9060200160405180910390a15b85876005018190555060006064808960080154856118a09190612ea1565b6118aa9190612ece565b6118b49190612ece565b905080156119345760028801546118e490600080516020613234833981519152906001600160a01b031683611aa4565b6002880154604080516001600160a01b039092168252602082018c905281018290527f94d3eed43cf9b7dc9fa37f43b13135e600c7b5cf7343e7cbfbad094ebdb7755f9060600160405180910390a15b7f5dde9027f8f0377b1fa9c9940178dc74b62d725373ea8ba371525b260697aa718a8a89604051611967939291906130dd565b60405180910390a150505050505050505050565b6119836119f1565b6001600160a01b0381166119e85760405162461bcd60e51b815260206004820152602660248201527f4f776e61626c653a206e6577206f776e657220697320746865207a65726f206160448201526564647265737360d01b606482015260840161086b565b610ef381612443565b6000546001600160a01b03163314610caf5760405162461bcd60e51b815260206004820181905260248201527f4f776e61626c653a2063616c6c6572206973206e6f7420746865206f776e6572604482015260640161086b565b600260015403611a9d5760405162461bcd60e51b815260206004820152601f60248201527f5265656e7472616e637947756172643a207265656e7472616e742063616c6c00604482015260640161086b565b6002600155565b6040516001600160a01b03831660248201526044810182905261165890849063a9059cbb60e01b906064015b60408051601f198184030181529190526020810180516001600160e01b03166001600160e01b03199093169290921790915261264e565b6001600160a01b0382166000908152600b60205260409020600f81015460ff16611b3057505050565b60008080600684015460ff166003811115611b4d57611b4d612b4f565b14611b59576005611b5c565b60035b90506000818460040154611b709190612ea1565b905060005b6007811015611c48576000856007018260078110611b9557611b95612ef5565b01546001600160a01b0316905080611bad5750611c48565b6000606460028460078110611bc457611bc4612ef5565b0154611bd0908a612ea1565b611bda9190612ece565b9050611be68187612e52565b9550611c016000805160206132348339815191528383611aa4565b6001600160a01b0382166000908152600b602052604081206003018054839290611c2c908490612e52565b9250508190555050508080611c4090612e6b565b915050611b75565b5080831115611d0f576000611c5d8285612ee2565b90506000600a611c6e600f84612ea1565b611c789190612ece565b905080866001015410611ca45780866001016000828254611c999190612ee2565b90915550611cac9050565b600060018701555b611cd9600080516020613234833981519152739c156fd416e0368545b999a4cc2cf9444ecf401684611aa4565b6040518281527fd83c63197e8e676d80ab0122beba9a9d20f3828839e9a1d6fe81d242e9cd7e6e9060200160405180910390a150505b505050505050565b6000611d266201518042612ece565b6001600160a01b0383166000908152600b602052604081206001015491925090611d5490620f424090612ece565b6001600160a01b0384166000908152600b6020526040902060050154611d7b906002612ea1565b611d859190612e52565b60008381526019602090815260408083206001600160a01b0388168452909152812080549293508392909190611dbc908490612e52565b90915550620143709050611dd362015180426130ff565b118015611de2575081601b5414155b1561165857611df082612723565b50601b5550565b6000601854601754601654611e0c9190612e52565b611e169190612e52565b905080600003611e24575050565b6000611e308284612ece565b60165490915015611f15576016546000906064611e4e866014612ea1565b611e589190612ece565b611e629190612ece565b905060005b601054811015611f1257611eb260108281548110611e8757611e87612ef5565b600091825260209091200154600080516020613234833981519152906001600160a01b031684611aa4565b60008051602061325483398151915260108281548110611ed457611ed4612ef5565b600091825260209091200154604051611ef8916001600160a01b0316908590613113565b60405180910390a180611f0a81612e6b565b915050611e67565b50505b60175415611fcc576017546000906064611f3086601e612ea1565b611f3a9190612ece565b611f449190612ece565b905060005b601154811015611fc957611f6960118281548110611e8757611e87612ef5565b60008051602061325483398151915260118281548110611f8b57611f8b612ef5565b600091825260209091200154604051611faf916001600160a01b0316908590613113565b60405180910390a180611fc181612e6b565b915050611f49565b50505b60185415611658576018546000906064611fe7866032612ea1565b611ff19190612ece565b611ffb9190612ece565b905060005b6012548110156120805761202060128281548110611e8757611e87612ef5565b6000805160206132548339815191526012828154811061204257612042612ef5565b600091825260209091200154604051612066916001600160a01b0316908590613113565b60405180910390a18061207881612e6b565b915050612000565b5050505050565b6000805b6012548110156120f257600b6000601283815481106120ac576120ac612ef5565b60009182526020808320909101546001600160a01b031683528201929092526040019020600101546120de9083612e52565b9150806120ea81612e6b565b91505061208b565b5060005b60115481101561216857600b60006011838154811061211757612117612ef5565b60009182526020808320909101546001600160a01b0316835282019290925260400190206001015461214a906002612ea1565b6121549083612e52565b91508061216081612e6b565b9150506120f6565b5060005b6010548110156121de57600b60006010838154811061218d5761218d612ef5565b60009182526020808320909101546001600160a01b031683528201929092526040019020600101546121c0906003612ea1565b6121ca9083612e52565b9150806121d681612e6b565b91505061216c565b50806000036121eb575050565b60005b6012548110156122ab5760006012828154811061220d5761220d612ef5565b60009182526020808320909101546001600160a01b0316808352600b909152604082206001015490925084906122439087612ea1565b61224d9190612ece565b905080156122965761226e6000805160206132348339815191528383611aa4565b600080516020613254833981519152828260405161228d92919061314a565b60405180910390a15b505080806122a390612e6b565b9150506121ee565b5060005b601154811015612377576000601182815481106122ce576122ce612ef5565b60009182526020808320909101546001600160a01b0316808352600b909152604082206001015490925084906123049087612ea1565b61230f906002612ea1565b6123199190612ece565b905080156123625761233a6000805160206132348339815191528383611aa4565b600080516020613254833981519152828260405161235992919061314a565b60405180910390a15b5050808061236f90612e6b565b9150506122af565b5060005b6010548110156116585760006010828154811061239a5761239a612ef5565b60009182526020808320909101546001600160a01b0316808352600b909152604082206001015490925084906123d09087612ea1565b6123db906003612ea1565b6123e59190612ece565b9050801561242e576124066000805160206132348339815191528383611aa4565b600080516020613254833981519152828260405161242592919061314a565b60405180910390a15b5050808061243b90612e6b565b91505061237b565b600080546001600160a01b038381166001600160a01b0319831681178455604051919092169283917f8be0079c531659141344cd1fd0a4f28419497f9722a3daafe3b4186f6b6457e09190a35050565b6040516001600160a01b03808516602483015283166044820152606481018290526124cb9085906323b872dd60e01b90608401611ad0565b50505050565b6001600160a01b0381166000908152600b6020526040812060020154640ba43b74008110156125035750603292915050565b642e90edd0008110156125195750606492915050565b50609692915050565b6001600160a01b0382166000908152600b602052604081206002810180549192849261254f908490612e52565b925050819055508181600401600082825461256a9190612e52565b9250508190555081601c60008282546125839190612e52565b9091555060009050600a612598600f85612ea1565b6125a29190612ece565b9050808260010160008282546125b89190612e52565b909155505081546001600160a01b031660005b6007811080156125e357506001600160a01b03821615155b15612644576001600160a01b0382166000908152600b6020526040812060050180549161260f83612e6b565b90915550506001600160a01b039182166000908152600b6020526040902054909116908061263c81612e6b565b9150506125cb565b50612080856128b7565b60006126a3826040518060400160405280602081526020017f5361666545524332303a206c6f772d6c6576656c2063616c6c206661696c6564815250856001600160a01b03166129499092919063ffffffff16565b90508051600014806126c45750808060200190518101906126c49190613182565b6116585760405162461bcd60e51b815260206004820152602a60248201527f5361666545524332303a204552433230206f7065726174696f6e20646964206e6044820152691bdd081cdd58d8d9595960b21b606482015260840161086b565b600d546000036127305750565b60006064600d5460056127439190612ea1565b61274d9190612ece565b60408051600a8082526101608201909252919250600091906020820161014080368337505060408051600a80825261016082019092529293506000929150602082016101408036833701905050905060005b600a81101561280d5760008382815181106127bc576127bc612ef5565b60200260200101906001600160a01b031690816001600160a01b03168152505060008282815181106127f0576127f0612ef5565b60209081029190910101528061280581612e6b565b91505061279f565b506000601d5467ffffffffffffffff81111561282b5761282b612f0b565b604051908082528060200260200182016040528015612854578160200160208202803683370190505b50905083156128755783600d600082825461286f9190612ee2565b90915550505b7f1c03f0de1280a893d77bcfb469e7c1fbd41fe5a2e7c44b19e0794519de9a7b008584866040516128a8939291906131a4565b60405180910390a15050505050565b6001600160a01b0381166000908152600b60205260409020600f81015460ff161580156128eb575062989680816004015410155b80156128fc57506005816005015410155b15610b2257600f8101805460ff191660011790556040516001600160a01b03831681527fd4719dd6c50c53a868b4c8eb187c166965be87e084f350aab18e6b0f141c773490602001610975565b60606129588484600085612962565b90505b9392505050565b6060824710156129c35760405162461bcd60e51b815260206004820152602660248201527f416464726573733a20696e73756666696369656e742062616c616e636520666f6044820152651c8818d85b1b60d21b606482015260840161086b565b600080866001600160a01b031685876040516129df9190613204565b60006040518083038185875af1925050503d8060008114612a1c576040519150601f19603f3d011682016040523d82523d6000602084013e612a21565b606091505b5091509150612a3287838387612a3f565b925050505b949350505050565b60608315612aae578251600003612aa7576001600160a01b0385163b612aa75760405162461bcd60e51b815260206004820152601d60248201527f416464726573733a2063616c6c20746f206e6f6e2d636f6e7472616374000000604482015260640161086b565b5081612a37565b612a378383815115612ac35781518083602001fd5b8060405162461bcd60e51b815260040161086b9190613220565b60008060408385031215612af057600080fd5b50508035926020909101359150565b600060208284031215612b1157600080fd5b5035919050565b80356001600160a01b0381168114612b2f57600080fd5b919050565b600060208284031215612b4657600080fd5b61295b82612b18565b634e487b7160e01b600052602160045260246000fd5b60048110612b7557612b75612b4f565b9052565b6001600160a01b038816815260208101879052604081018690526060810185905260e08101612bab6080830186612b65565b92151560a082015260c0015295945050505050565b60008060408385031215612bd357600080fd5b82359150612be360208401612b18565b90509250929050565b600080600060408486031215612c0157600080fd5b833567ffffffffffffffff80821115612c1957600080fd5b818601915086601f830112612c2d57600080fd5b813581811115612c3c57600080fd5b876020828501011115612c4e57600080fd5b6020928301989097509590910135949350505050565b60005b83811015612c7f578181015183820152602001612c67565b50506000910152565b60008151808452612ca0816020860160208601612c64565b601f01601f19169290920160200192915050565b60006101208b8352806020840152612cce8184018c612c88565b6001600160a01b038b166040850152606084018a905291505060038710612cf757612cf7612b4f565b608082019690965260a081019490945260c084019290925260e083015261010090910152949350505050565b6001600160a01b03891681526020810188905260408101879052606081018690526080810185905260a081018490526101008101612d6460c0830185612b65565b82151560e08301529998505050505050505050565b803560028110612b2f57600080fd5b600080600060608486031215612d9d57600080fd5b83359250612dad60208501612d79565b9150604084013590509250925092565b60008060408385031215612dd057600080fd5b82359150612be360208401612d79565b60028110612b7557612b75612b4f565b83815260608101612e046020830185612de0565b8215156040830152949350505050565b6020808252600e908201526d726f756e64206e6f74206c69766560901b604082015260600190565b634e487b7160e01b600052601160045260246000fd5b80820180821115612e6557612e65612e3c565b92915050565b600060018201612e7d57612e7d612e3c565b5060010190565b6001600160a01b03831681526040810161295b6020830184612b65565b8082028115828204841417612e6557612e65612e3c565b634e487b7160e01b600052601260045260246000fd5b600082612edd57612edd612eb8565b500490565b81810381811115612e6557612e65612e3c565b634e487b7160e01b600052603260045260246000fd5b634e487b7160e01b600052604160045260246000fd5b600181811c90821680612f3557607f821691505b602082108103612f5557634e487b7160e01b600052602260045260246000fd5b50919050565b601f82111561165857600081815260208120601f850160051c81016020861015612f825750805b601f850160051c820191505b81811015611d0f57828155600101612f8e565b815167ffffffffffffffff811115612fbb57612fbb612f0b565b612fcf81612fc98454612f21565b84612f5b565b602080601f8311600181146130045760008415612fec5750858301515b600019600386901b1c1916600185901b178555611d0f565b600085815260208120601f198616915b8281101561303357888601518255948401946001909101908401613014565b50858210156130515787850151600019600388901b60f8161c191681555b5050505050600190811b01905550565b848152606060208201528260608201528284608083013760008184016080908101919091526001600160a01b03929092166040820152601f909201601f19169091010192915050565b6001600160a01b038516815260208101849052608081016130ce6040830185612de0565b82606083015295945050505050565b838152606081016130f16020830185612de0565b826040830152949350505050565b60008261310e5761310e612eb8565b500690565b6001600160a01b0392909216825260208201526060604082018190526006908201526573746174696360d01b608082015260a00190565b6001600160a01b0392909216825260208201526060604082018190526007908201526664796e616d696360c81b608082015260a00190565b60006020828403121561319457600080fd5b8151801515811461295b57600080fd5b6000606082018583526020606081850152818651808452608086019150828801935060005b818110156131ee5784516001600160a01b0316835293830193918301916001016131c9565b5050809350505050826040830152949350505050565b60008251613216818460208701612c64565b9190910192915050565b60208152600061295b6020830184612c8856fe000000000000000000000000337610d27c682e347c9cd60bd4b3b107c9d34ddd24268f919c6d5aae090cbcdc766090e2ef2975f2c7d62dfeb8f3013bf06022c5a2646970667358221220fc85187f99824d62037844785a31f64fe9173371b82998ed69ae5bbb0d33aafe64736f6c63430008140033",
  "linkReferences": {},
  "deployedLinkReferences": {}
}